:10100000000200206923000005230000C122000027
:1010100015230000252300003523000000000000F8
:10102000000000000000000000000000A5220000F9
:101030004523000000000000592200005523000055
:101040001BE10000A1F3000099E700003927000030
:10105000552700001BE100001BE100001BE1000020
:101060001BE1000065E500006BE500001BE10000EE
:101070001BE100001BE100001BE100001BE1000080
:101080001BE1000049E200001BE100001BE1000041
:101090001BE100001BE100001BE100001BE1000060
:1010A0001BE100001BE1000071E5000077E5000096
:1010B0001BE100001BE10000000000000000000038
:1010C0001BE100001BE100001BE100007127000094
:1010D0001BE100001BE100001BE1000055ED0000DA
:1010E0001BE100001BE100001BE10000000000000C
:1010F000000000001BE10000000000008D27000040
:101100002DE9F0412C482D4E2D4F2E4D86B0082153
:1011100000F012FD2C4B2D48197813F061FF02A846
:1011200000F0F3FCBDF80A30B3F5017F10D840F2AF
:10113000022293423BD840F20122934222D02B78E4
:10114000002BECD1224813F0FDFF06B0BDE8F08182
:101150004FF6F1729342F2D1304613F0F3FF1D487F
:10116000394600F0B3F92B78002BE8D01A4B1B4816
:10117000B3F9003000931A4A1A4B1B49006813F068
:1011800083F8DCE71948DFF8688013F0DBFF039C85
:1011900024B90398214607F023FDD0E794F90C30D9
:1011A0001BB96168404613F01BFF2468F0E704A9EF
:1011B00002A800F081FCC2E7380300205B6D01004B
:1011C000766D01008903002088030020246D010052
:1011D000886D0100806D01008A03002034A70100A2
:1011E00080841E000002002078030020406D010072
:1011F0004E6D01002DE9F041431E012B88B00446DD
:1012000006D901463A4808B0BDE8F04113F0E8BEFF
:10121000384E35782DB1384808B0BDE8F04113F0AC
:1012200091BF364B36493070022818BF19463548F1
:10123000DFF8048113F0D4FE334A344B3448022CD7
:1012400018BF1346CDE90153324B009306222B46BB
:101250004FF4806100F0B4FE3378A8F80000012B51
:1012600022D128460CF0AEFE074607F021FB4022B3
:101270002F21064628480CF067F910F0FF0408BF3C
:101280004024254904A80CF0EBF810232202009317
:1012900042F010026B440921384607F018FB002881
:1012A00005DA1E4813F04EFF08B0BDE8F0811A4978
:1012B0001B4813F095FE304609F0B4F9002801DA16
:1012C0001848EFE7184813F03DFF2B462A4604A9BB
:1012D000F0B209F05DFB08B91448E3E7144813F0D5
:1012E00031FFB8F9000000F0D7F81248DAE700BF84
:1012F000B76D010088030020CB6D01009E6D0100D9
:10130000976D0100E16D0100AE6D0100A36D01005C
:101310008C03002001110000806D0100F76D0100B9
:10132000166E01003A6E0100546E01006E6E0100EF
:101330008D6E0100AA6E01008A030020024A00237C
:101340001370024A1370704788030020890300203D
:10135000012837B556DD4C683349204613F0B4FFF9
:1013600038B90120FFF746FF304B01221A7003B055
:1013700030BD2F49204613F0A7FF054670B9022063
:10138000FFF738FF2B4BB3F9003000932A4B2A4666
:101390002A482B49006812F077FFE5E729492046E3
:1013A00013F092FF024680B9274B1B782BB92748D0
:1013B00003B0BDE8304013F0C5BE022BD4D11D4BA5
:1013C000B3F9003000931C4BE2E72149204613F0AB
:1013D0007BFF68B9194B1A491C68204612F0A7FD1B
:1013E00018B11749204612F0E8FD104B0022BDE766
:1013F0001849204613F068FF20B903B0BDE830401B
:10140000FFF79CBF144813F09DFE0F4B1B78002B79
:10141000ADD0124A12491348022B18BF114603B02F
:10142000BDE8304013F0DCBDA56E0100890300204B
:10143000A76D01008A0300200002002034A70100EC
:1014400078030020D86E010088030020DE6E0100C2
:10145000086F01000D6F0100146F01009E6D010007
:10146000976D01003F6F010000B50848A1B0082149
:1014700000F062FB064813F065FE064813F062FEBA
:1014800080226946002011F083F8F9E7F802002075
:10149000516F0100786F01000949B1F9083010B5AA
:1014A0002BB149680748BDE8104013F099BD088189
:1014B000012404204C6007F001FB03482146F2E7B9
:1014C00008020020AE6F0100D96F0100F0B587B0AF
:1014D000024606460C4602A801A90CF09FFD002812
:1014E00004DA294813F02EFE07B0F0BD204614F0B0
:1014F000C7F8002302462146184607F0CFFC0446F1
:1015000008B92248EEE70122114687680BF0B4FAC9
:10151000054628B91E4813F015FE294620460AE064
:1015200002AA002102F038FA044638B9194813F02B
:1015300009FE2146284607F053FBD5E7019B8BB1F6
:1015400000231A461946184606F0A8FF054608B9B2
:101550001148E0E7019B42680BB1B3F9FA315380BF
:101560002C602C460D49234640F20222042005F04F
:101570004FFE054608B90A48CDE7012332463946F1
:10158000084813F02DFDAFE7027001002D70010037
:10159000597001007E700100A47001000000FFFF7F
:1015A000CB700100EE70010070B5064E064CA41B16
:1015B000A4080025AC4200D170BD56F825309847EC
:1015C0000135F7E7F4A8010020A9010013B50020B8
:1015D0000DF0AAFB014608B900F044F8084C20467B
:1015E00012F08EFA204611F023FD064B06480094B7
:1015F00001224FF4806112F08FFA02B010BD00BFDB
:101600008C0B0020137101008C0700207047000034
:101610004FF080435722C3F81C25BFF34F8F054975
:10162000054BCA6802F4E0621343CB60BFF34F8FEF
:1016300000BFFDE700ED00E00400FA0508B5EFF398
:101640000583DBB243B9EFF310832BB9044813F0E1
:1016500079FD00F05DFCFCE70149032000F03AF859
:101660001971010008B57146024813F0B9FCFFF783
:10167000E5FF00BF2B71010008B5FFF795FF034898
:1016800013F060FDFFF7F0FE002008BD347101008B
:101690001FB5EFF3108372B6074B0293002301933B
:1016A000064B0093072204234FF4C061044800F066
:1016B00087FC00F0BBFD00BF7371010079160000CC
:1016C0003C0D002008B50DF0C4FFBDE8084011F046
:1016D000E9B8704708B50D4B1A680C467AB9012273
:1016E0001A60FFF7F6FF2146094813F079FC0EF067
:1016F00013F80A2013F0A0FC064813F023FDEFF3C3
:10170000108372B600F01CFDFFF782FF3C1300202F
:10171000787101009471010070B50D4600210446F6
:1017200000F01AFA0D4E70B9BFF35B8FE288BFF379
:101730005B8F338812B21BB29A4204D06DB901217B
:10174000204600F009FA3388BFF35B8FE380BFF3D4
:101750005B8FA3880133A380012070BD4413002058
:101760000021FFF7D9BF000008B50F4BBFF35B8F17
:10177000C188BFF35B8F1B8809B21BB2994201D0AD
:10178000FFF770FF8388002BFAD0013B9BB2838068
:1017900043B9BFF35B8FC380BFF35B8FBDE80840E5
:1017A00000F012BA08BD00BF441300200346D0E980
:1017B000072010B59C69141BA04201DA002010BD5F
:1017C000541C0240DC61F9D4586A00EBC20203C920
:1017D00082E803001A896FEA42426FEA52421A8194
:1017E000184600F033FB0120E9E7000008B50E4B76
:1017F00053F82130A3B11A79042A0BD103C81A690E
:1018000082E8030018460C2100F078FA074B01200B
:10181000186008BD01461846BDE80840FFF7C6BF7E
:101820004FF0FF30F5E700BF941300204C13002069
:101830002DE9F0411D46294B53F82140284B1B88C8
:101840000380064690462CB985F310884FF0FF3090
:10185000BDE8F0812379042B36D0224B0146204687
:101860001F68FFF7A3FF78B185F310883B79062B3B
:1018700002D01D4B1B682BB11C4B4FF080525A609D
:10188000BFF36F8F0120E3E7B8F1000F02D185F3BA
:101890001088DDE73B793E61062B0CBF0621052150
:1018A000384600F02BFA04F11400394600F06AFBC8
:1018B00023896FEA43436FEA53432381204600F0B4
:1018C000C5FA85F31088D7E7D0E90001236983E8DA
:1018D00003000C21204600F011FAF2E794130020D7
:1018E00044130020481300204C13002000ED00E0BA
:1018F000F8B50446EFF3108672B6344D2A680AB97B
:10190000FFF7B0FE576A002F59D0D2E9063098424F
:1019100055D0581C9061106A034039B9516929B9F2
:10192000591C03D186F310881846F8BD002B4ADBFA
:1019300007EBC30103C984E80300516959B30D469D
:10194000002B55F80C1951610CDBD2E90740936963
:10195000E31A9842A9BF631C4FF0FF340440D361DF
:1019600007EBC4042B6993E8030084E803002B7998
:10197000062B02D186F310881FE0002328462B6136
:101980000C2100F0BBF9687986F310880E2814D872
:1019900000F0F2F911E0002BECDA0421104600F01F
:1019A000ADF986F310880A4B4FF080525A60BFF3AE
:1019B0006F8F2B681B79042BA2D00123B4E74FF063
:1019C000FF330029AAD01461B7E700BF48130020F5
:1019D00000ED00E010B50146EFF3108472B6054B40
:1019E0001B880380044B1868FFF7E0FE84F310881F
:1019F00010BD00BF441300204813002021230380A2
:101A0000FFF7F4BEEFF30583DBB20BB1FFF7F6BFD0
:101A1000064B1B881BB2994201D1FFF7DBBFEFF3E6
:101A2000108372B60122FFF703BF00BF44130020EA
:101A300010B4EFF3058212F0FF0203D05DF8044BFF
:101A4000FFF7DCBF074B1B881BB2994203D15DF83F
:101A5000044BFFF7BFBFEFF3108372B65DF8044B82
:101A6000FFF7E6BE44130020114B1B881BB29A42BD
:101A7000F7B506460C46154601D1FFF7F3FDEFF327
:101A80001083019372B60B4A17680621384600F09E
:101A900035F996E80300019B3C61012284E80300CC
:101AA0002946204603B0BDE8F040FFF7C1BE00BFA5
:101AB000441300204813002038B5EFF3108572B6A8
:101AC0000F4BB0F9002053F822400CB9FFF7CAFDC4
:101AD0002379062B04D085F310884FF0FF3038BDF2
:101AE00003C9236983E8030020460C2100F006F9AE
:101AF000607985F3108800F03FF90120EFE700BF1F
:101B0000941300200021FFF7F3BE0121FFF7F0BE80
:101B100008B5EFF3108272B6064B1B680BB9FFF7DE
:101B2000A1FD586A10B1D3E90630C01A82F31088BB
:101B300008BD00BF4813002008B5064B4A1E1B68AD
:101B40001140586201D0FFF78DFDC3E906111A62FA
:101B500008BD00BF48130020F8B504460D46EFF35A
:101B6000108772B603683BB94FF0FF33036087F309
:101B7000108801252846F8BD11B987F31088F9E7C8
:101B80000F4B1E680EB9FFF76DFD0321304600F0C4
:101B9000B5F8236801330DD106F10C03236000234F
:101BA000F36087F31088074B4FF080525A60BFF301
:101BB0006F8FDFE73146204600F0E4F9F1E700BF20
:101BC0004813002000ED00E038B50446EFF310851F
:101BD00072B6006810B985F3108838BD431C02D175
:101BE00000232360F7E750F80C3923600C2100F044
:101BF00085F8236813B94FF0FF33236085F310880D
:101C0000034B4FF080525A60BFF36F8FE5E700BF80
:101C100000ED00E008B503790B2B04BF0C23037122
:101C2000836A1A68934208D0B0F90610034813F08B
:101C3000D7F903490D20FFF74DFD08BDA171010043
:101C4000D0710100026810B54AB113688B4207D108
:101C50009A4202D10023036001E01B68136010BDAB
:101C600013461B681C68A14202D09A42F9D1F6E7DC
:101C7000002BF4D00A681A6002689142EFD1EAE7BB
:101C800070B5184C184E2368356843BB15B128460B
:101C9000FFF7C0FF00F00EFB2368002BFAD00020F6
:101CA000124B00221A602368114AB3FA83F352F8E8
:101CB00023301C680C3C0B23AC4223710DD008B1BF
:101CC000FFF7A8FF0B4BA16AB4F906201A801F3159
:101CD000094A3460022000F023FA204670BD2846ED
:101CE000DEE700BF40130020481300204C13002003
:101CF00054130020441300200800061670B50A296A
:101D0000037904460D461AD90A2B14D84279184B88
:101D100000F10C0153F8220078B10068E06053F83C
:101D20002200016043F8221012494FF00043D340D3
:101D30000A6813430B60257170BDE160F2E70A2B5E
:101D4000F9D90B4E407904F10C0106EB8000FFF746
:101D500079FF627956F82230002BECD105494FF01B
:101D6000004323FA02F20B6823EA0203E2E700BF12
:101D700054130020401300200B4B1B681A790A2AC9
:101D800002D95B7983420DD9EFF30583DBB21BB136
:101D9000064B01221A607047054B4FF080525A6083
:101DA000BFF36F8F704700BF481300204C13002013
:101DB00000ED00E008B5EFF3108372B6094B0A4A54
:101DC0001B880A4D1BB2002442F82340084A2868A9
:101DD00013682146013B1360FFF790FF2C6000F071
:101DE00025FA00BF4413002094130020481300205C
:101DF0005013002010B50346EFF3108472B6028929
:101E000002EA010022EA01021A8184F3108810BD5F
:101E10000C4B10B51B68EFF3108472B61A89104290
:101E20000DD1186107211846FFF768FF84F3108869
:101E3000054B4FF080525A60BFF36F8F10BD84F393
:101E40001088FBE74813002000ED00E010B503798F
:101E5000048A072B03D0082B0CD0002408E0038948
:101E60001C4005D00C21FFF749FF054B01221A60E9
:101E7000204610BD038934EA0303EED10124F1E7C3
:101E80004C13002013B5064B01901C68FFF7C0FFF0
:101E90000199204602B0BDE81040FFF7ABBF00BF7C
:101EA0004813002010B5EFF3108472B6038902794D
:101EB0001943072A038A018104D0082A13D084F326
:101EC00010880FE01942FAD00C21FFF717FF074BDB
:101ED00001221A6084F31088054B4FF080525A603B
:101EE000BFF36F8F10BD8B43E9D1EDE74C1300209A
:101EF00000ED00E0431E9BB21F2B05D8034B53F8A7
:101F0000200010B1C06A7047002070479413002071
:101F100010B5EFF30583DBB27BB9EFF3108472B633
:101F2000064B02211868FFF7E9FE84F31088044B82
:101F30004FF080525A60BFF36F8F10BD48130020DE
:101F400000ED00E0EFF3108072B60B4B1B681A79BE
:101F50000A2A07D95A79094B53F8221011B1096896
:101F600043F8221080F31088054B4FF080525A60DE
:101F7000BFF36F8F704700BF481300205413002039
:101F800000ED00E038B50B790A2B01D9FFF76AFBA9
:101F90004C7901F10C020346006818B110F8075C97
:101FA000A542F8D9C8601A6038BD03460144814291
:101FB00002D90268824201D0C01A70470430F6E7A5
:101FC0000F2A2DE9F84F05468A469046994633D8A0
:101FD00010F003031DBFC3F10402043B5B180B4662
:101FE000A3F1340318BFAD1833F0030324D419F060
:101FF000080F05EB030416D02D60EFF3108B72B6BB
:102000002749012251F8226017B2C6B10132212AB4
:10201000F8D18BF310886FF08A073DE0126004322C
:10202000A242FBD3E9E72A46FAE702212046FFF75E
:1020300065FE8BF310882FE06FF015072CE041F858
:1020400022402A46DDE90A01E78000F0A1F80C9B56
:10205000144AE3624FF0FF33C4E908361368206086
:10206000013319F0010FC4E90366C4E90566A562EE
:10207000C4F830A084F805802671E6611360D4D1DD
:102080000C212046FFF73AFE19F0040FD1D18BF353
:1020900010884046FFF770FE3846BDE8F88F00BF55
:1020A00094130020501300200C2808B503D8034BCC
:1020B00053F8200008B9FFF7D5FA08BD44720100B3
:1020C0000C4B0D4A10B540219A600C4CE02283F86D
:1020D0002220D9770022A0180132302A80F800137C
:1020E000F9D11A6942F010021A615A6942F4007279
:1020F0005A6110BD00ED00E00010000000E100E0BA
:10210000064BD3F8942042F00502C3F894205A6A93
:1021100042F480325A620020704700BF00ED00E0B8
:10212000064B21F01F0142F00102C3F89800C3F8EA
:102130009C100020C3F8A020704700BF00ED00E015
:1021400008B5EFF30581C1F3080119B1054810394D
:1021500012F046FF044BD3F8F030DB0700D500BE89
:1021600008BD00BF7872010000ED00E0BFF34F8FA3
:102170000549064BCA6802F4E0621343CB60BFF323
:102180004F8F00BFFDE700BF00ED00E00400FA053F
:102190001A4422F0030210B54FF0773442F8044C91
:1021A000540758BF4FF08834A2F104035CBF42F8D3
:1021B000084CA2F108034FF0807243E902020D4A75
:1021C00043F80C2C0020032243E9052043F8201C8F
:1021D00001220224194643E907246FF0020241F864
:1021E000242D0B2241F8042D013A032AFAD1A3F140
:1021F000440010BDB51D00000548064A064B0168A5
:10220000914201D1984201D3181A70470430F6E781
:1022100000000020FEE7FEE700020020EFF3088048
:102220007047000000487047000000200023E1EEE6
:10223000103AEFF3148323F0040383F31488BFF3FD
:102240006F8FEFF3108362B6024B4FF080525A60EB
:10225000BFF36F8F00ED00E0114910B50C6872B646
:10226000FFF70EFD62B6A04208BF10BD2146BDE8D3
:10227000104049B1EFF309821EF0100F08BF22EDA4
:10228000108A22E9F04F0A600068B0E8F04F1EF0B3
:10229000100F08BFB0EC108A80F309887047000067
:1022A00048130020024B4FF080525A60704700BF25
:1022B00000ED00E030BF62B6BFF36F8F72B67047BB
:1022C0000D4B0E4A0E496846904203D8984201D9F8
:1022D000002102E009468D46012104207246024297
:1022E00002D1EFF3088001E0EFF309802DE9F00F50
:1022F0006B4600F08FF800BF58010020000004205A
:102300000002002008B502490620FFF7E3F900BFEC
:102310008772010008B502490520FFF7DBF900BF0D
:102320009372010008B502490820FFF7D3F900BFF6
:10233000A672010008B502490920FFF7CBF900BFDA
:10234000B872010008B502490A20FFF7C3F900BFBF
:10235000CC72010008B502490B20FFF7BBF900BFA2
:10236000DE72010070477047204AD2F8883043F48B
:10237000700310B5C2F88830FFF7F4FF6A461C4BB3
:102380001C491C4693422DD31B4B1C48DA1C121AC5
:10239000C11E22F003028B4238BF0022184912F0FE
:1023A000E5FB184B1848DA1C121AC11E22F0030272
:1023B000994288BF0022002112F0EEFC24B1134A9A
:1023C00013490120FFF7ACFEFFF79AFEFFF7CBFFA2
:1023D00000F074F9FFF71AF912F072FBBDE8104033
:1023E000FFF756B943F8041BCCE700BF00ED00E04F
:1023F00000000020FEE7FEE7F402002000020020BB
:10240000D0A9010000570020F8020020080006169D
:102410001F0000202DE9F04F2DED068B89B090466E
:1024200004935C4B9A6B08EE102A5A6BD3F828A0E1
:1024300008EE902ADA6A09EE102A1A6BDB6B0AEEB4
:10244000103A554B09EE902A1A68544B9A420446AA
:10245000894602D0524812F075FEB9F1000F6AD0D9
:10246000504812F06FFE504B5048198809B212F0D4
:10247000B7FD00252E464E4812F064FE51464D48E9
:1024800012F0AEFD19EE101A4B4812F0A9FD19EE2C
:10249000901A4A4812F0A4FD1AEE101A484812F099
:1024A0009FFD1AF4004F04D018EE101A454812F0A0
:1024B00097FD1AF0800F04D018EE901A424812F0DF
:1024C0008FFD424812F03EFE4148414612F088FD21
:1024D000B9F1000F2BD118F0080F54D0324B1988E6
:1024E00009B208460391FFF705FD039902463948F2
:1024F00012F076FD384812F025FE3146374812F0CA
:102500006FFD6946364BC91A03D53648494212F069
:1025100067FD049E20468268C36801698C46416954
:102520008E46AD46314691E8F00F416800682E496D
:102530000720FFF7CFF8D4E90230D4E90012E769A9
:10254000039020690591D4E905B60AEE900AB80512
:102550002648CDE9062354BF04F1200504F12405E3
:1025600012F0F0FD039B059900932148DDE9062355
:1025700012F036FD1AEE901A009733465A461D485F
:1025800012F02EFD77E7217F1B48103912F028FD4D
:10259000B0E700BF00ED00E000000020FEE7FEE72E
:1025A000EC7201000273010044130020317301003A
:1025B000DB730100E4730100F47301000474010093
:1025C0001474010024740100347401004474010087
:1025D000497401005B7401009A740100CB7401001E
:1025E00058010020F37401002075010045730100BB
:1025F000607301009D730100747401007047000056
:10260000EFF3108172B6094A13680133012B13608E
:1026100009D14FF080420020C2F800011360D2F8C7
:102620000031002BFBD081F3108870471814002074
:10263000094A08B513680BB9FFF714F8EFF31081D6
:1026400072B61368013B13601BB94FF0804301223F
:102650005A6081F3108808BD18140020084A1078C9
:1026600068B94FF080430121C3F81815C3F804017D
:102670009960D3F804110029FBD00123137070472F
:102680001C1400204FF0704393F8E02F062A12D15B
:10269000D3F8E40F10F00F000DD1D3F8E82F02F0BB
:1026A000F002302A08D1D3F8EC3F13F0F00F0CBF42
:1026B00001200020704700207047000008B5FFF798
:1026C000E1FF30B1134AD2F8FC3023F08073C2F836
:1026D000FC30FFF7D7FF20B14FF080430322C3F84F
:1026E000A025FFF7CFFF30B14FF080430022C3F8A1
:1026F0000C21C3F81021FFF781FF074B0122C3F81B
:102700004025FFF7DDFCFEF7DDFFBDE808400CF0DB
:10271000BBBF00BF00ED00E000E00140044B1B68C0
:102720002BB1044B4FF080525A60BFF36F8F70474C
:102730004C13002000ED00E008B5044A044B10687B
:102740001B689847BDE80840FFF7E8BF3014002039
:102750002014002008B5044A044B50685B68984771
:10276000BDE80840FFF7DABF301400202014002035
:1027700008B5044A044B90689B689847BDE8084038
:10278000FFF7CCBF301400202014002008B5044A05
:10279000044BD068DB689847BDE80840FFF7BEBF30
:1027A00030140020201400200BF03AB903680246D0
:1027B0003BB11868834219BF02681A600023136096
:1027C00070471846704708B500B109B9FEF74AFFCF
:1027D0004B68002BFAD0EFF3108272B60B6833B956
:1027E00003686BB11B680B60036819600160406887
:1027F00082F3108830B1BDE808400121FFF752BBD9
:102800000960F3E708BD08B5EFF3108172B6FFF772
:10281000CDFF81F3108808B10023036008BD0000DC
:1028200038B58569044685B10A4B18684369013398
:102830000CD011F085FB23696A68C11A8A4226BF51
:102840009B181B1A00236B60206138BD83685B688E
:102850009847F0E730A701008369084A10B504469D
:1028600010682BB15A68214611F0C0FB206110BDE1
:102870002146BDE8104011F0A0BB00BF30A7010009
:102880008369002210B504465A60A06930B14368DC
:1028900023B90368A36163699847F6E72046BDE85A
:1028A0001040FFF7D9BF000070B505460C46EFF3A6
:1028B000108672B6FFF7B4FF05F118031A68EAB97B
:1028C00022601A681AB151686068091A51601C6068
:1028D000AB69A34206D10D4B62681868294611F016
:1028E00085FB286186F31088094B1B682BB1094BC7
:1028F0004FF080525A60BFF36F8F70BD61685068AF
:102900008142DDD3091A61601346D7E730A7010081
:102910004C13002000ED00E070B504460D46EFF3C7
:10292000108672B6FFF77CFFA26904F118012AB97C
:102930002046FFF791FF86F3108870BD954213681B
:1029400002D011461A46F2E70B60002BF0D05A680D
:1029500069680A445A60EBE7034B4161C0E9023001
:1029600000238361704700BF8128000058B10378BD
:1029700043B1013810F8013F0BB901207047303BDB
:10298000092BF7D90020704738B1054B0A0901F02F
:102990000F019A5C5B5C027043700220704700BFBD
:1029A00033750100F8B50D465700064610B18C1876
:1029B000A54201D13846F8BD304615F8011BFFF796
:1029C000E3FF0644F4E7F8B50E465700054610B19C
:1029D0008C18B44201D13846F8BD284614F8011DC0
:1029E000FFF7D2FF0544F4E703461A460133117896
:1029F0000029FAD1101A704707B5042201910DEB96
:102A00000201FFF7E0FF03B05DF804FB0E4B9942B3
:102A100030B517D80A2301221C468B420FD960B16A
:102A200083180A25B1FBF5F405FB1410303003F8C8
:102A3000010D084609282146F4D8104630BD6343ED
:102A40000132EAE70A22EAE7FFC99A3BFFF7DEBF55
:102A500013B5074B01911B680446986811F064FE9A
:102A60000199204602B0BDE810400FF031BF00BF11
:102A70008C02002007B5014601A8FFF785FF02215F
:102A800001A8FFF7E5FF03B05DF804FB07B50146B9
:102A90006846FFF7B1FF08216846FFF7D9FF03B08A
:102AA0005DF804FB10B50446FFF79EFF0146204683
:102AB000BDE81040FFF7CCBF90B1D9B1002340EA88
:102AC0000102D2070ED5C20710D5CA0710D5814220
:102AD0003EBF024608461146091AF6D100FA03F134
:102AE00008467047400849080133E8E74008EAE72C
:102AF0004908EAE70146F3E72DE9F84307460D46A2
:102B000014460AB9FEF7AEFD11462846FFF7D4FF7A
:102B1000A042F7D8A8423BD8B4FBF0F9B5FBF0F0DF
:102B20000026B0FA80FE4FF00048CEF1200528FACA
:102B30000EF834463346B446CEF15F0EDB184CEB4C
:102B40000C0110EA080F18BF43F001034B4571F167
:102B500000028C464FEA44044FEA580811D3B3EB05
:102B6000090361F1000C44F00104002C0CDA53EA73
:102B70000C0300D00134C5F120053C603D71BDE877
:102B8000F883002CF1D1013D01367645D6D3EEE72E
:102B900000252C46EFE74269013201D011F0D0B98F
:102BA00083685B6818472DE9F041DDF81880154609
:102BB00000220E461F46014608F10803104600F0A9
:102BC000E9FA044650B1406876BA6DBA8680C5808D
:102BD00027B142463946083011F0C8FF2046BDE80B
:102BE000F081000073B506460C46002A3ED0072B44
:102BF0003CD99188D088083B40BA49BA009389B241
:102C000002F1080382B28120FFF7CDFF054668B3C9
:102C1000237EFF2B04F1080214BF04F118010021E8
:102C200000F0BAFE044610B90146284609E0002328
:102C30001A461946184605F031FC054630B90146DA
:102C4000204602B0BDE8704005F0CABF43680EB12F
:102C5000B6F9FA615E8006492C602B4640F20222EA
:102C6000022004F0D5FA01460028DED002B070BD83
:102C70000000FFFFF7B5099D0C4611461A464FF6B6
:102C8000FB739D4207464AD8009500238020FFF73A
:102C90008AFF002846D022460021466800F07CFECC
:102CA000044620B9214812F04DFA00252EE0436871
:102CB0009DF82020DA7167B100231A46194618469C
:102CC00005F0ECFB40B34368B7F8FA215A80046082
:102CD0000446174B1868FFF75EFF032D89BFB060ED
:102CE0000836043D0C3600239D42DAB211D1114959
:102CF000234640F20222022004F08AFA0028D4D1AE
:102D00006FF008050021204605F06AFF284603B051
:102D1000F0BDF2540133E7E76FF00B05F2E76FF017
:102D20001505F3E76FF00B05F0E700BF43750100F1
:102D300034A701000000FFFF2DE9F0479846224B21
:102D40000646186817460D46FFF725FF0221814603
:102D5000304606F079FA03218246304606F074FACE
:102D60000446BAF1000F2AD048B3DAF8040008305C
:102D700002F09EFB6468032D04F1080C1CD9A268C4
:102D8000043DA9EB02020C3425442146E043A9424C
:102D900002D14FF0FF3109E001310B1811F8014C5D
:102DA000DBB29C42F3D0A1EB0C0101394346304623
:102DB000BC46BDE8F047604764460022E4E76FF098
:102DC0001500BDE8F08700BF34A70100F8B50D4637
:102DD0000221164606F038FA044608B9FEF742FC0E
:102DE00047680C49102207F1080011F08DFE70B100
:102DF0003B7AFF2B0BD03B7EFF2B06D1022D04D05C
:102E0000042D04D1022E18BF00242046F8BD002452
:102E1000FBE700BFA07A010010B50B4608241B6831
:102E200033B193F90C20013202D09A681444F6E7CA
:102E30008268A24209D98B6840684968121B9A428D
:102E400028BF1A46204411F091FE204610BD70B5EF
:102E50004FF0FF31054606F0F7F9002406462DB97C
:102E60003034AEB173682BB9FEF7FCFBAB682D684C
:102E70001C44F4E7B3F9020004F095FC0028F3D0F9
:102E8000B0F82A31B268283BA41A9C4228BF1C46DD
:102E9000204670BDF8B5054610460F4614461E463E
:102EA000FFF7D5FF294603463A46002000F072F9A5
:102EB0000546F8B1436836BA5E6094F90C305A1C86
:102EC00012D0022B05D123687BB193F90C3001336A
:102ED0000BD17CB194F90C3001330BD0214628463C
:102EE000FFF79AFF2468F4E72468082614B1AA685B
:102EF000B24201D82846F8BDA36868686168921B91
:102F00009A4228BF1A46304411F030FEA368246864
:102F10001E44EBE770B5054614460846002D39D02F
:102F20004FF0FF3106F090F906460CB9FEF79AFB18
:102F3000626800210832284600F02EFD044628B9B8
:102F400001462846BDE8704005F04ABEC6B1736828
:102F5000002BEBD0B3F9020004F025FC0023194646
:102F600005461A46184605F099FA014608B9204662
:102F7000E8E743680DB1B5F9FA515D800C600C4685
:102F80000549234640F20222022004F041F901469D
:102F90000028ECD070BD00BF0000FFFF70B50C46EC
:102FA0000246064601212046FFF710FF054658B1AC
:102FB0002246314600230120FFF76CFF2A462146B6
:102FC000BDE87040FFF7A6BF70BD37B50C46019055
:102FD000002202212046FFF7F9FE054660B1224695
:102FE000019B00210220FFF755FF2A46214603B02E
:102FF000BDE83040FFF78EBF03B030BD70B50C4662
:103000000246064603212046FFF7E0FE054658B17A
:103010002246314600230320FFF73CFF2A46214683
:10302000BDE87040FFF776BF70BD2DE9F04716464A
:10303000044602460F4630460421FFF7C7FE80468D
:1030400080B33046FFF703FF2246034604210020E9
:1030500000F0A0F8054648B1D0F804A034464FF07F
:10306000000954B999FA89F3CAF804304246314646
:103070002846BDE8F047FFF74DBF94F90C30013307
:10308000F0D021462846FFF7C7FED4E901329F421F
:1030900006D31A4497423EBFFB1A083B03EB0009D4
:1030A0002468DEE7BDE8F087F8B5048906460F46D8
:1030B000154600200DB1B54218D132897168002340
:1030C0000AF024F904F13A030344B3F5803F24BF26
:1030D000013080B2796820443A3000232022083140
:1030E00080B20AF013F9C04380B2F8BD23462A89A2
:1030F00069680AF00BF9AB682D681C44A4B2D9E7E3
:103100002DE9F8430E4681460321304606F09CF82F
:10311000044608B9FEF7A6FA022106F095F807461C
:103120000028F7D0A368032B05D830460021BDE85E
:10313000F84305F055BD014632462046D4F80480D8
:10314000FFF7B2FF0028F0D198F80050892D0FD872
:10315000842D11D8802D16D098F80010334640F2F7
:103160000122032004F054F80028DED0BDE8F883E3
:103170006335EDB2012DEFD8A36879684246484621
:1031800002F0ECFCE8E72389796842464846FFF7FD
:1031900029FDE1E738B50D46144600211A46032300
:1031A00005F07CFE28B1436800221D705C709A70A7
:1031B000DA7038BD10B5044660B190F90C30032BBD
:1031C0000BD10268FFF770FF50B1626843BA5380B9
:1031D000002010BD6FF00D00FBE76FF04C00F8E72A
:1031E0006FF00100F5E7002105F0FABC08B50449CD
:1031F000102211F089FCB0FA80F0400908BD00BF30
:10320000807A010010B50A490822044611F07CFCBE
:1032100048B12378FF2B08D1607800F00F00831E9F
:103220005842584110BD0120FCE70020FAE700BFDA
:10323000707A01002DE9F8430E46D1E900140546E5
:103240000A4600232ABB5BBAA380A379FF2B02D1D5
:1032500019BB3B23A371E37913B94DBB4023E37141
:1032600004F108073F491022384611F04DFC04F1E3
:103270001809804678BB4846FFF7B8FF0246D0B130
:1032800010224146384611F087FD0123E37534468C
:1032900050E0906812680344D4E70B7B023BDBB23A
:1032A000022BD6D8304AD35CA371FF2BD3D1D0E701
:1032B00095F8F831D3E74946284604F049FC002840
:1032C000E5D0034600F1100253F8041B47F8041B35
:1032D0009342F9D1DBE7284604F070FA4846FFF73D
:1032E00085FF98B10024284604F06FFA002CCED058
:1032F0000321304605F0A8FF28B143681B7803F08E
:10330000FD03852BC3D06FF07C0023E039462846AF
:1033100004F0F7FB0028E5DB284490F8304004F087
:103320001F04103C18BF0124DDE705F0D5FD98B15E
:103330002060044694F90C30022B02D1206800284A
:10334000F3D13146204605F03AFC002807DA831C09
:1033500008BF0020BDE8F8836FF00B00FAE70020FB
:10336000F8E700BFA07A01006275010010B50C46B5
:103370000AB9012010BDFFF75DFF0028F9DA2046E9
:10338000FFF731FF0020F5E738B50B680D4604461E
:1033900008B9FEF767F94A68B0F8FA1151800022BF
:1033A00063B9B4F82A0190420CD22946FFF70DFE0A
:1033B00028467A21BDE8384005F012BC99681B68A0
:1033C0000A44EDE7EFF3108172B6D4F8AC20013275
:1033D000C4F8AC202A68BAB9D4F8B4201344C4F8AD
:1033E000B43081F31088204604F0C0F980B10D4953
:1033F0002B4640F20222012003F00AFF88B928463A
:10340000BDE83840FFF7EFBE906812680344E2E77A
:10341000B4F9FA0140F20222294603F0EEFE002838
:10342000EDDD38BD0000FFFF002370B505460C46FA
:1034300042F0400619461A46184605F02FF8014694
:1034400020B92846BDE87040FFF7CDBE43681E7125
:103450000560EFF3108272B6D4F8A8300133C4F8D7
:10346000A83082F310882046BDE87040FFF78CBF7B
:103470002DE9F04390F90C30013389B006468846B7
:1034800024D144680CB9FEF7EDF8B4F9020004F059
:103490008AF905463046277905F01EFD07F03F07FB
:1034A000014628B9304609B0BDE8F043FFF79BBE9E
:1034B00005F0C0FB064696F90C30022B09D0162108
:1034C000304609B0BDE8F04305F08ABB00273D4611
:1034D000F1E7706858491022183011F015FB0028E8
:1034E000EDD0304605F0F8FC04460028DAD04368F9
:1034F0001A7EFF2A2DD1002D40F08A8004F046F973
:10350000002840F094802046CDE7B8F1000F11D09C
:10351000204605F0E1FC06460028F4D00146284686
:10352000FFF788FE002806DAB442ECD03046FFF7F9
:103530005AFEE8E726463A4629463046FFF774FF2A
:10354000284604F021F905460028DED109B0BDE87F
:10355000F08303F11809484604F0E8FB854206466B
:1035600005D04846FFF74EFE002818BF0026484603
:10357000FFF73CFE00B9AEB1424621463046FFF7A8
:10358000F5FE0028E2D0204605F06DFB0028BAD1F8
:103590002A49234640F20122022003F039FE002886
:1035A000D4D1B0E701AB22462946484602F0E0F903
:1035B0000028CBDBBDF81C00C0F3041004F0F3F8C6
:1035C000054600283FF45FAF42462146FFF7CEFE96
:1035D0000028BBD031469DF81E3005AA304604F0C5
:1035E0005DFF014618B92046FFF7FDFDAEE74368D1
:1035F0001F710460EFF3108272B6D5F8A430013366
:10360000C5F8A43082F310882846FFF7BDFE9DE779
:10361000014642462846FFF7A9FE002896D03A46C2
:103620002946204609B0BDE8F043FFF7FDBE411E24
:10363000204605F0A7FB83E7A07A01000000FFFF0A
:103640002DE98048DFF8E492B64889B00023CDE93F
:103650000539B54B08211B88ADF81C30FEF76CFA14
:1036600005A9022005F02AFA40F20523ADF80E3034
:1036700040F2022A40F2012401A8FEF746FABDF802
:103680000610B1F5017F09D8514500F25181A142E0
:103690003CD05145F0D10298012137E1A1F59F437B
:1036A000403B9AB2152AE7D8152BE5D801A252F86B
:1036B00023F000BF413900004139000041390000CA
:1036C00041390000793600004139000041390000DD
:1036D00041390000413900004139000079360000CD
:1036E00041390000413900004139000041390000F2
:1036F00041390000793600004139000041390000AD
:10370000793600004939000051390000029E0EB997
:10371000FDF7A8FF4FF0FF31304605F095FD8046DC
:1037200080B34368002BF3D0B3F9020004F03BF8F8
:1037300005460028ECD0EFF3108072B6D5F8B8300B
:103740000133C5F8B8303246002193681268194435
:10375000002AFAD1D5F8BC30D8F808209B1A0B44BF
:10376000C5F8BC3080F3108873683BB1B268272A73
:1037700004D91B7803F0F003602B05D03046FFF727
:1037800032FD77E70546EFE7304605F0A5FB044636
:103790000028F3D00222282105F0C0FB0023237368
:1037A00008B92046EBE74768FB792BB92146184654
:1037B000FFF724FC742174E0B988BE7949BA89B254
:1037C00009B93B2EEDD18442A36857D08B422046E5
:1037D00054D905F011FC07F1180B5846FFF706FD08
:1037E00070B95846FFF70EFD08B1002D5DD158465F
:1037F00004F09CFA0546B0FA80F04009002858D140
:10380000292E00F088803A2E00F08780112E0CBF00
:103810000423002323733146022005F0B8F9002861
:1038200001DC3A2E7BD10121204605F0ABFA0127BD
:1038300094F90C00234640F20122494603F0E8FCCB
:1038400010B92046FFF7CFFC87B13A2E03D10121F2
:10385000204605F097FA234640F201223146022025
:1038600003F0D6FC10B92046FFF7BDFC3A2E7FF4DA
:1038700001AF21462846FFF743FCFBE600228368A0
:103880001A4490F90C30022B02D000680028F6D1BF
:10389000283A8A429FD2391D22460020FFF7C5FBF5
:1038A0001621204605F09CF9E4E6584604F03EFA5D
:1038B000A1E707F10800FFF7A5FC50B95846FFF74C
:1038C000A1FC80B13B7EFF2B3FF46BAF2146032070
:1038D00006E05846FFF796FC0028F3D12146022067
:1038E000FFF75CFB5DE7FB79013BDBB2FB7183B16A
:1038F000B8F1000F03D04146204605F09BF9204661
:1039000005F0D5F900283FF4B5AE0021FFF7B0FD72
:10391000B0E621464CE702237CE703237AE7002741
:1039200086E700BF40140020441300200000FFFF82
:103930006FF0850303A901A80493FEF7BDF899E68B
:10394000029802F081FD95E6029801F055FF91E69C
:103950000298002101F092FF8CE600BF1FB50A4CCF
:10396000B4F900305BB9094A0948CDE90132094A86
:1039700000924FF470710422FEF722FB2080B4F90C
:10398000000004B010BD00BF401800205D750100AC
:103990008014002041360000F8B50C46174602237B
:1039A0002822002105F07AFA064608B3456805F199
:1039B0000800FCB1214604F1100351F8042B40F833
:1039C000042B9942F9D105F11800C7B13A4607F125
:1039D000100352F8041B40F8041B9A42F9D16022EC
:1039E00000232A70FF226B70AB70EB70AA71EB7131
:1039F0003046F8BD1022214611F0CEF9E3E710223F
:103A0000394611F0C9F9012385F82730E7E70000AE
:103A1000F8B5044615460E4609B90020F8BDD1F8A0
:103A20002C71FA04F9D51949082211F06DF838B152
:103A30002378FF2BF1D1637803F00F03022BECD135
:103A4000FB0704F1080105F1100201D4FDF70AFE9D
:103A500096F8F90109F0FEFE10F0FF00DDD0A8761F
:103A60002B4604F1100254F8041B43F8041B944243
:103A7000F9D1B6F9FA311B0103F4F87343F480630A
:103A800043F006032B830120C8E700BF707A0100D2
:103A90002DE9F341064604F049F90446002864D0B4
:103AA00003F08CFEB4F9FA11002001F059F9054633
:103AB00000284BD0006800F07AFD002846D02B6823
:103AC000B4F9FA11B3F86420C2F30412914201D0A0
:103AD000FDF7C8FD043318463246214600F0C6FA09
:103AE0003146204604F00DF8051EF1DB611991F80E
:103AF000303003F01F02102A34D003F00702013ADD
:103B0000012A29D80133D4F8206181F83030E91C2A
:103B10000901174B1748B3F900808F1CC4312144A9
:103B20000191FEF7F9FE04EB05100023C0E93D36D4
:103B3000274444F6CF73A0F8FE30C0F80071A0F817
:103B4000FC8001990B48FEF7AFFE05E0002384F8E6
:103B50002731204602F02EFC204602B0BDE8F0419D
:103B600003F033BE4EF66026D1E702B0BDE8F08127
:103B700040180020881A00202DE9F04385B0DDE9C7
:103B80000CE80F461E46044608B9FDF76BFDD0F859
:103B90002C5115F4805F03D1042005B0BDE8F083FB
:103BA00093F80190B9F1020FF6D192F800C0BCF180
:103BB000880F40F08380ED07EED590F8542102ABDA
:103BC00000F5A67103F06DFB0828E5D1DDE90202DE
:103BD000B168F3689A4208BF8842DDD1B378012BFF
:103BE00047D0022B4BD0002B41D107F118012046C2
:103BF000F58803F086FF071ECEDB6DBAADB2012D4E
:103C000004EB07021CBF4EF660235D4392F8303090
:103C1000314823F01F0307F1030143F010034FEA7B
:103C2000011182F8303001F102082C4B01F1C4017E
:103C3000214418BFA5F56A45B3F90090019114BF5E
:103C4000603D47F23055A044FEF766FE04EB0714D2
:103C50000023C4E93D3544F6CF7301991E48A4F80A
:103C6000FE30C4F80081A4F8FC90FEF71DFEB07889
:103C700093E707F11801204604F0EEF9F7E7B4F9ED
:103C8000FA1107F1080001F06BF8054600283FF42F
:103C90007CAF01F02DF8002001F04CF828B984F831
:103CA0002701204602F086FBE1E72B68002B3FF45A
:103CB0006CAF07F11800FFF7EBFED8E7AC077FF514
:103CC0006BAFBCF1870F7FF467AFCDE90CE805B0AF
:103CD000BDE8F04300F086B8881A002040180020A4
:103CE00073B54378032B054603D00024204602B069
:103CF00070BD083001F068FA04460028F5D06B88E2
:103D0000AA885BBA52BA9BB243EA0243EA8852BA23
:103D100092B242F21071002A08BF0A464EF66025A0
:103D2000554302699A4209D30361114B18684369EC
:103D3000013319D010F004F9284460610D4B0E488E
:103D4000B3F9006004F118010191FEF7E5FD0023CD
:103D5000C4E9063544F6CB7301990748638464626D
:103D60002684FEF7A1FDC1E783685B689847E3E717
:103D700030A7010040180020881A002073B51546AE
:103D80008A784878402A8CBF03230223984226D1A0
:103D9000CC88CB7864BA03F00F06A4B2C3F3001347
:103DA000009308312346304606F028FF0DB9FDF791
:103DB00059FCF04305F1290200F00700F508012144
:103DC00001FA00F0535DC0B23CB923EA00034EF69D
:103DD00060205355604302B070BD0343F7E74FF0D6
:103DE000FF30F8E72DE9F74F01F1080A064688464B
:103DF0009146474910225046DDE90CB71D4610F0A8
:103E000083FE002800F08180BBF1000F7DD05FB100
:103E100097F86630DB0707D50822A91807F11400C8
:103E200010F072FE002867D1EC88002C5FD05B4652
:103E30004A464146304600F03FFAB6F9FA1150467C
:103E400000F0C6FD044600285DD000F1140705F11E
:103E5000080808224146384610F056FE28B1B4F84A
:103E6000643003F4C063002B4BD1AB686361D8F8B6
:103E700004307B60ED88274B2748B3F9007004F1CC
:103E8000540101916DBAFEF747FD00236365ADB2A1
:103E90004EF660235D4344F6C973A4F85E30019981
:103EA0001D48A5652466A4F85C70FEF7FDFCB4F817
:103EB000643013F007030ED0062B0CD00EB9FDF7BB
:103EC000D1FB154804F12401FEF726FD032221460B
:103ED000304600F0D7F9B4F8643023F4C06343F4FB
:103EE0008063A4F86430002003B0BDE8F08F67B1B0
:103EF000384600F0C7FDF6E7B7F8643003F4C06356
:103F00001BB10120F0E70220EEE70420ECE700BF40
:103F1000A07A010040180020881A002073B5069E80
:103F20001C460BB9FDF79EFB0025CDE90065FFF7A8
:103F300023FEC31EDBB2012B0AD9E18849BA2B4606
:103F400004F1080289B202B0BDE8704008F032BC4A
:103F5000284602B070BD0000F8B50468124F06464E
:103F60000D4600F0E5FC204601F0C4F9044698B186
:103F70001022394610F0C8FD0028F4D023462A4606
:103F800004F1100153F8040B42F8040B8B42F9D1F1
:103F900023692B6163696B6100F0D0FC201E3460E3
:103FA00018BF0120F8BD00BFA07A010070B58AB02B
:103FB000044601462822684609F0D2FA0C4B054611
:103FC000186843690133D4E904640DD00FF0B8FFD9
:103FD000201A324629464EF66023B0FBF3F305481B
:103FE00010F0FEFF0AB070BD83685B689847EFE78A
:103FF00030A70100657501002DE9F0411F460B4B0C
:10400000144605460E460A48B3F900801146FEF7ED
:1040100083FC0023C4E900376681E560A4F80880CA
:1040200021460348BDE8F041FEF73EBC40180020A1
:10403000881A002038B50446154699B190F86820D2
:104040009A4205D01A4602311C3010F05DFD58B975
:10405000B4F86410B5F9FA01C1F30411081A18BFD5
:10406000012038BD0846FCE70120FAE72DE9D041E0
:10407000804685B016461F460C4609B9FDF7F2FA90
:10408000B1F9FA11002000F06BFE56B3D4F82C21E0
:10409000D20426D528B30068B4F9FA21B0F8643008
:1040A000C3F304139A421CD13946043009F0EBF9EA
:1040B000B8B1D4F82C31DB0710D594F8542102ABF9
:1040C00004F5A671204603F0ECF8082806D1002379
:1040D00002AA0F21184608F06DFB18B905B0BDE81B
:1040E000D081002000903B4632462146404602F0F7
:1040F000A5FEF3E770B50446B0F86400C0F3041001
:104100000E4603F050FB054608B9FDF7ABFA03F085
:1041100055FB16B1002384F86730231D1846002292
:104120002946FFF7A3FFD5F8203104F1240244F615
:10413000C0712046FFF760FF284603F046FB94F865
:104140006730013384F8673070BD2DE9F043B0F873
:10415000643013F0070585B00446884677D06A1EA0
:10416000012A6FD8C3F3041003F01DFB44F6C1719C
:104170000746204601F034F981460FB9FDF772FA7F
:10418000384603F01BFBD7F82061B14554D9B8F18C
:10419000000F02D0002384F86730012D26D194F857
:1041A000672040F2DC51023A4FF4FA705FFA82F86D
:1041B0000BF054FBA0F5FA73B3F57A7F8446DDD299
:1041C000B8F1110FDAD805FA08F2A2FB0651A5FBE7
:1041D000000500234FF47A720CFB015110F060F8D7
:1041E0004EF66023984228BF1846064640F2FF224A
:1041F0000023CDE900234FF080730293FF238DF855
:104200000C30637C8DF80D30638AADF80E300022DF
:104210006B463946201DFFF729FF334604F124027F
:1042200044F6C1712046FFF7E7FE94F86730122B81
:104230009CBF013384F86730384605B0BDE8F043D1
:1042400003F0C3BA05B0BDE8F043FFF753BF05B0B4
:10425000BDE8F08310B50446D0F8E80000EB50014B
:1042600040080BF0FBFA04F1A402C4F8EC00044B84
:10427000204644F6CE71BDE81040FFF7BDBE00BF3A
:1042800000DD6D00B1F8643023F00703134370B50F
:104290000446A1F864300D46164603F08FFA34B197
:1042A000D4F8C0301BB13246291D03209847204660
:1042B000BDE8704003F089BA2DE9F843904699466D
:1042C000054608B9FDF7CEF901F10807B0F9FA1172
:1042D000384600F07DFB044628B190F8663013F0B4
:1042E000010F08BF0024D5F82C31DA07EAD595F87C
:1042F000F901494609F0C4FA061E25DB002C49D015
:1043000094F86830B34207D1324609F1020104F152
:104310001C0010F0F9FB98B1D5F82C2141F20203F2
:10432000934303D198F80030852B09D0234804F13A
:104330002401FEF7F1FA032221462846FFF7A2FFE7
:1043400094F86630DB0701D4BDE8F88398F80030B4
:10435000862B18D1B4F8642042F00802A4F8642037
:10436000D5F82C1141F202028A4301D1852BEBD002
:1043700084F86860324609F1020104F11C00BDE8CE
:10438000F84310F0F3BB872BEAD0B4F8642022F096
:104390000802E3E7B5F9FA110322384600F0B0FB52
:1043A00004460028D0D098F80030872BC8D1B4F844
:1043B000643023F00803A4F86430C1E7881A0020B1
:1043C00038B50446B0F8640000F00703042B12D09F
:1043D000062B12D10325C0F3041003F0E4F92A469A
:1043E0002146FFF74FFF052D07D120460121BDE8EB
:1043F0003840FFF7AABE0525EDE738BD70B5054684
:104400000C460622FFF73EFFD5F81C3104F12402CA
:10441000204644F6C771BDE87040FFF7EDBD0000CF
:104420002DE9F047054617461E460C4609B9FDF72B
:1044300019F90028FBD06BB1D0F82C31D907F6D58B
:1044400090F8F901314609F01BFAB0F1000802DAE0
:10445000BDE8F0879846B4F8649009F00709B9F10F
:10446000020F0FD097F800A0BAF1880F02D13B7964
:104470009A0607D443462A4631462046FFF7DAFD1E
:1044800000284ED0002E44D084F868804246B11CEB
:1044900004F11C0010F06AFB3B78882B02D13B79B9
:1044A0005B0639D4284804F12401FEF735FA0322CB
:1044B00021462846FFF7E6FE3B78882BC8D13A799B
:1044C00090063DD5B4F8643011065ABF23F00803B6
:1044D0009BB243F00803A4F864305206B8D4B4F891
:1044E000643003F00703062BB2D143462A46314617
:1044F0002046FFF79FFD0028AAD004F124011248AE
:10450000FEF70AFA214628460322BDE8F047FFF7E6
:10451000B9BE84F86860BFE721462846FFF76EFF02
:10452000CAE7BAF1880F93D1B9F1000F90D03B7967
:104530005B068DD521462846BDE8F047FFF75EBFF4
:10454000B9F1020FC9D1BDE7881A00200122FFF797
:1045500099BEB0F8642002F00703022B10B50446A0
:104560000BD0052B17D0012B06D1B4F8643013F40F
:10457000C06F0AD01B0708D410BD90F86730022B1B
:1045800003D9BDE8104000F07DBA20460021BDE807
:104590001040FFF7DABD90F86730022BE5D9C2F37F
:1045A000041003F000F92146FFF7D0FFDDE7B0F873
:1045B000640000F007000138012894BF00200120AA
:1045C0007047000008B50449102210F09DFAB0FAB7
:1045D00080F0400908BD00BFA07A01002DE9F34139
:1045E000089E884615461946074630B3B8F1000FB5
:1045F00023D00193FFF7E6FF01990446304B9E421A
:104600009ABF4FF47A735E434FF0FF36002954D0BF
:104610000CB1002D51D0019100F08AF9019944B3F9
:10462000284600F035FB054648B96FF00B0400F052
:1046300085F9204602B0BDE8F0810124DEE7214B78
:1046400018600EB90024F2E71F4B011D00241F481B
:10465000B3F900700191FEF75FF9C5E9014644F630
:10466000CD73EB812D61AF8101991848FEF71CF9DC
:10467000DDE74346802B284628BF80233A4600F0DA
:10468000F1FB05460028D0D090F8343043F01003F9
:1046900080F83430002ED5D00B4B00F124010B48AC
:1046A000B3F900700191FEF737F944F6D073C5E90C
:1046B0000946EB852D63AF85D6E76FF01504B8E7A3
:1046C000378941005C1C002040180020881A002017
:1046D00070B505460E4600F02BF92DB126B12846DF
:1046E000FFF770FF044640B100F05CFB08B100F03A
:1046F000FFFABDE8704000F021B9204600F05EFCF2
:1047000004460028F5D094F83530B342F5D1294657
:10471000201D08F0CEFEB042EFD3074804F124017B
:10472000FEF7FAF894F8343023F0100384F83430AC
:10473000204600F01FFCDCE7881A00202DE9F0413C
:1047400006460F469846154602B10BB9FCF78AFF9C
:10475000106838B92C68204600F030FC0446F8B9DF
:10476000286003E000F03EFC0028F3D12C682046CE
:1047700000F0E0FA044670B120680028F7D02FB1AD
:10478000B0F86430C3F304139F42F0D15EBB4146DE
:10479000204600F031FB201E2C6018BF012019E0DC
:1047A00094F83430002BD1D020680028D3D0042BCB
:1047B00002D1E38EDB07CED52FB1B0F86430C3F35E
:1047C00004139F42C7D13EB92046414600F018FC71
:1047D0002C600120BDE8F0813146043008F053FE22
:1047E0000028F1D1B7E73146043008F04CFE00282C
:1047F000BDD0CCE710B590F820308CB0044613B192
:10480000FFF7E0FE00B394F82110154A154B164847
:10481000002914BF1146194610F0E2FB04F1100103
:1048200008460191FFF7CEFE019938B9282202A867
:1048300008F096FE01460D4810F0D2FB618C0C4842
:1048400010F0CEFB0CB010BD2146282202A808F0C3
:1048500087FE94F820200146064810F0C1FBDDE7F2
:104860007D750100F97901007F75010091750100E6
:10487000997501008A750100CB08C943C25C01F03B
:104880000701012303FA01F10A4214BF1846002070
:10489000704730F9081FFDF7B1B8000008B50449AA
:1048A000102210F031F9B0FA80F0400908BD00BFC5
:1048B000A07A0100064A13683BB11868834219BF09
:1048C00002681A600023136070471846704700BFE3
:1048D000841A002090F8661011B96C2210F05CBAAE
:1048E000704770B5044610460E461546FFF7F2FFB6
:1048F0004CB123462A1D04F1100153F8040B42F871
:10490000040B8B42F9D11F2E01D9FCF7ABFEB5F891
:10491000643023F4F87343EA0611A5F8641070BDFF
:1049200001490248FEF718B893480000881A002091
:104930000148FCF715BF00BFA41A00200148FCF78E
:1049400013BF00BFA41A00202DE9F041154C064604
:104950000F4604F5D8780025B4F86430C3F3041387
:104960009F420CD025B994F86630002B08BF25462D
:104970006C34A045F0D155B92846BDE8F081211D21
:104980005EB90846FFF78AFF0028EBD025462A4685
:1049900039463046FFF7A5FFEEE7304608F073FDD5
:1049A000F2E700BFAC1A002028B16C30064B9842E9
:1049B00003D3002070470548F8E790F86620002AE6
:1049C000F8D16C30F3E700BF5C1C0020AC1A00206B
:1049D0002DE9F0418846074608B9FCF743FE114C23
:1049E0000026254694F8663043B96C36B6F5D87F74
:1049F00004F16C04F6D10020BDE8F081B4F8643015
:104A000013F4F87FC3F3041204D0B8F1000F01D0FF
:104A10009045EAD13946201D08F035FD0028E4D044
:104A2000A819E9E7AC1A002073B50446B0F8640091
:104A3000C0F3041002F0B7FEB4F86430D0F81C6183
:104A40000E4823F0070343F00603A4F864300C4B30
:104A500004F12401B3F900500191FDF75DFF00233B
:104A6000019906482463C4E9093644F6C773E3850F
:104A7000A58502B0BDE87040FDF716BF881A00207A
:104A80004018002010B590F8663023F0010380F83C
:104A90006630044600F134011748FDF73DFF164823
:104AA00004F12401FDF738FF134804F14401FDF738
:104AB00033FF04F154011048FDF72EFF0F490A6837
:104AC00022B113689C4206D1FFF7F4FE2046BDE8F0
:104AD0001040FFF7FFBE13461B681868844202D0DF
:104AE0009A42F9D1F2E7002BF0D022681A600A68E6
:104AF000944208BF0B60E9E7881A0020841A00205E
:104B00002DE9F0470F46064608B9FCF7ABFD02F069
:104B100007052B1F022BF8D9FFF716FF04460028C4
:104B20004BD1FFF7C7FE8246002863D0DFF8C8905C
:104B3000804698F8664034F001042DD1B8F864300E
:104B400003F4C06383B94046FFF79CFF42463946F1
:104B50003046FFF7C6FEB8F864302B43A8F864303F
:104B6000012388F866304446D9F80030B3B11B6899
:104B7000C8F80030D9F80030C3F80080C9F80080C8
:104B8000C4B9FFF797FE82458046D2D1D9F80030EC
:104B90003BB9C8F800800BE00024E5E7C8F80080C6
:104BA000ECE71B68C8F80030D9F80030C3F8008083
:104BB000C9F800802046BDE8F08790F86630DA0733
:104BC0000AD4B0F8642022F007022A4343F001031C
:104BD000A0F8642080F866302368002BEAD1064BE9
:104BE0001A682AB1126822601A6814601C60E1E732
:104BF0002460FBE70446DDE7841A0020F8B50C4684
:104C0000054600B109B9FCF72DFD0A46031D00F168
:104C1000140153F8040B42F8040B8B42F9D1B5F898
:104C200064701A492783082220460FF06DFF04F1B3
:104C3000100638B12378FF2B1DD1637803F00F03E2
:104C4000022B18D1C7F3041002F0ADFD0028DAD012
:104C5000D0F82C31D9040ED59A070CD4DB0705F116
:104C60000C01D0D590F8F901324608F0F3FD002888
:104C700001DBA076F8BD95F86820A27605F11C014D
:104C80003046BDE8F8400FF071BF00BF707A0100F8
:104C9000F8B5164C256807460E46A5B1B5F8643040
:104CA000C3F30413994201D00020F8BD291D08F078
:104CB000EAFB0028F8D095F8663043F0080385F841
:104CC00066302046F1E7FFF73FFE024620600028ED
:104CD000EAD031463846FFF704FE226892F8663083
:104CE00043F0080382F86630EBE700BF701800203D
:104CF000036810B504468BB1011D0C48FDF70CFE8E
:104D0000206890F8663023F0080380F86630FFF7DB
:104D1000E1FD14220021204610F03EF8044B1A68F1
:104D2000A24204BF00221A6010BD00BF881A0020F2
:104D30005C1C002028B11430074A904203D30020A5
:104D400070470648F8E703681BB193F86630002BFC
:104D5000F6D11430F1E700BF84180020701800204D
:104D600010B520B10E4B1C682CB9002010E00029B2
:104D7000F8D1FCF777FC29B1B4F86430C3F304131D
:104D80009942F2D128B994F866301B07F1D504484E
:104D900010BD211D08F077FB0028E6D0F3E700BF27
:104DA0007018002010B5134C2168B9B10B68B3F826
:104DB000643003F00703013B012B0DD80020FFF7FF
:104DC000B9FF68B90846FFF7B5FF01B110B9002077
:104DD000FFF7B0FF20600146084610BD0846EEE729
:104DE0000368B3F8643003F00703013B012BF1D8EB
:104DF000E5E700BF5C1C002038B50C46054610B145
:104E0000036803B109B9FCF72DFC102200212046EC
:104E10000FF0C2FF124A12680023AA4284F8203021
:104E200009D12B68B3F8643003F00703013B012B71
:104E300094BF0023012384F821302B6804F1100172
:104E40001A1D143352F8040B41F8040B9A42F9D19D
:104E50002B68B3F86430C3F30413638438BD00BF18
:104E60005C1C00202DE9F84F054689461F469046F8
:104E700032B11046FFF712FD10B97B1E7F2B01D90E
:104E8000FCF7F0FBDFF8E8B0044682469BF83420DC
:104E9000EAB9002C08BF5C460AF1010ABAF1080F12
:104EA0000BF1400BF2D1002C46D02368002B49D1E6
:104EB00049462846FFF748FD06462060002841D1B4
:104EC0000146402220460FF067FF344634E09BF84D
:104ED00035209742E0D15846414650F8046B08F01F
:104EE000E8FA8742D8D8002ECAD0B6F86420C2F3B8
:104EF00004129145D0D104363046FFF7CFFCF0B90B
:104F0000002DC9D03146284608F0BDFA0028C3D08C
:104F100005F1100255F8041B46F8041B9542F9D11F
:104F2000134B4FEA8A1A5C4653F80A1091F8662030
:104F300042F0400281F866202046BDE8F88F002D3F
:104F4000EED0E5E7226849462846FFF7CAFC20462E
:104F5000FFB250F8042B92F8663043F0400382F819
:104F6000663041463A4608F0C4FA84F83570E3E703
:104F70008418002010B590F834300446DBB900687E
:104F800090B10D4B08229C4202D0196888420BD088
:104F9000013A03F14003F6D190F8663023F0400364
:104FA00080F86630FFF796FC20464022BDE81040AE
:104FB00000210FF0F1BE10BD8418002028B1403050
:104FC000064B984203D3002070470548F8E790F855
:104FD0003420002AF8D14030F3E700BF841A0020C3
:104FE00084180020054B984206D303F500739842BD
:104FF0002CBF00200120704700207047841800203B
:1050000038B5034610B1026802B109B9FCF72AFBB2
:10501000021D03F11404084652F8045B40F8045BD7
:10502000A242F9D193F8352081F82020002481F89C
:1050300021401A68B2F86400C0F30410488493F861
:105040003430042B01F1100005D121461022BDE8B7
:1050500038400FF0A1BE131D0146143253F8040B63
:1050600041F8040B9342F9D138BD00002DE9F04717
:1050700088461646074600B10AB9FCF7F3FA1F4DF9
:105080000024A14605F5007A95F834305BB1394625
:10509000281D08F00EFA484505D995F835308342A9
:1050A0009CBF81462C4640355545EDD134B194F82E
:1050B0003430042B1DD1E38EDB071AD4FFF772FEC8
:1050C00090B9B4B9204602F05FFB044618B96FF0FE
:1050D0007100BDE8F087D4F8C030002BF2D0424612
:1050E000394601209847EDE73146FFF785FE00205D
:1050F000EFE731462046FFF783FFF8E784180020EA
:1051000038B5044600F114011148FDF705FC94F888
:10511000343023F0040384F834302046FFF72AFFAC
:105120000C49641AB4F5E07F11D80B4DA411214647
:1051300005F12800FFF7A0FB48B184F00704012126
:10514000A14095F8284024EA010485F8284038BD9C
:10515000881A002084180020441800202DE9F3410B
:10516000044600F114011748FDF7D6FB2368B3F895
:105170006400C0F3041002F016FB0546E0B100F134
:105180003206211D304694F83580019108F091F9DE
:1051900005F142078045019998BF94F8358038465B
:1051A00088BF002608F085F9804501D926B1374629
:1051B0003946284602F050FF204602B0BDE8F041D3
:1051C000FFF79EBF881A002038B5044608B9FCF7DF
:1051D00049FA0B4908F057F978B90948FFF75EFB1F
:1051E00060B12346064C03F1100518685968224641
:1051F00003C20833AB421446F7D1014838BD00BFA3
:105200004418002070B558B3174908F03CF948B36A
:10521000164D174E002421463046FFF72DFBD8B916
:105220000134082C05F14005F5D10024114E254626
:1052300021463046FFF720FB48B90134102CF7D146
:10524000BDE8704008482C2200210FF0A5BDE0B257
:1052500005F0B2FC0574F0E72846FFF751FFDFE7E1
:10526000FCF700FA70BD00BF44180020841800202D
:105270006C1800206D18002008B520B119B191F804
:1052800034305B0701D4FCF7EDF9084BC91AB1F5CE
:10529000E07F0AD88911012381F0070103FA01F1A7
:1052A00090F82830194380F8281008BD8418002091
:1052B00070B539B10E4BCB1AB3F5E07F02D900249B
:1052C000204670BD0A4E0C4600F128052046FFF727
:1052D00075FE04460028F2D094F834305B07F5D50B
:1052E000A11B89112846FFF7C7FA0028EED0E7E78F
:1052F0008418002038B538B100F12C04074DAC42B9
:1053000004D30024204638BD054CF7E72046FFF7BC
:10531000C5FA0028F6D02C34F1E700BF7018002041
:10532000441800202DE9F3411F4613460A46014662
:105330000020089EFFF796FD054600283ED090F815
:105340003430B74243F0040380F8343001D2FCF724
:1053500089F907EA0604601C38D01E4B18684369B7
:1053600001332FD00EF0ECFD711C04461DD01A4BFA
:105370001A48B3F9008005F114010191FDF7CCFA48
:105380000023C5E9053644F6CC7301991348EB8335
:105390002D62A5F81C80FDF787FAB21C05D03319E1
:1053A000013301D104B101362644FB1C10D83B194E
:1053B000013308BF01373C44C5E90E46284602B018
:1053C000BDE8F08183685B689847CDE72646F3E740
:1053D0003C46F1E730A7010040180020881A002061
:1053E00010B50A4B9B690246002013B94FF0FF30FD
:1053F00010BD5C6820445C898C4204D1002AF7D03F
:10540000DC689442F4D01B68EFE700BF881A0020E4
:10541000F8B50F4616461D46044608B9FCF722F9B2
:10542000082BFBD84B1E1F2BF8D8FFF781FA20461C
:1054300000223946FFF764FB044620B9FFF77EFAE5
:105440006FF00B00F8BD2EB125B12A4631461C3055
:105450000FF08CFBB4F8643084F8685023F4C06318
:1054600023F0070343F4C063A4F86430FFF766FA3F
:105470000020E7E770B505460E46FFF759FA00240D
:105480002046FFF791FA044670B1B4F86430C3F3D4
:1054900004139E42F4D1211D284607F0F4FF002892
:1054A000EED02046FFF7EEFABDE87040FFF746BAAF
:1054B00038B50546FFF73CFA00242046FFF774FA9A
:1054C000044680B194F86630DA07F6D5211D2846E7
:1054D00007F0D9FF0028F0D0B4F864305B0702D0A1
:1054E0002046FFF7A1FABDE83840FFF727BAF8B524
:1054F0000C6806460D461746FFF71AFA2046FFF7D6
:1055000053FA044640B194F86630DB07F6D55EB92D
:1055100039462046FFF772FB2C60FFF70FFA286828
:10552000003818BF0120F8BDB4F86430C3F3041389
:105530009E42E3D1ECE7000010B58AB00146044674
:105540002822684608F00CF8014619480FF048FD7B
:10555000238B13F4F87FC3F3041102D015480FF026
:105560003FFDA17E6A4604F1100008F0A2F9014651
:1055700011480FF035FD238B1B0702D50F480FF0A4
:105580002FFD238B0E4A0F4803F0070352F8231018
:105590000FF026FD238B0C4A0A48C3F3412352F82F
:1055A00023100FF01DFD09480FF0CCFD0AB010BD0F
:1055B000C88D0100A2750100AB750100B675010030
:1055C00018760100088F010008760100F9790100C2
:1055D0002DE9F0411F460B4B144605460E460A487E
:1055E000B3F900801146FDF797F90023C4E90037AD
:1055F0006681E560A4F8088021460348BDE8F041D3
:10560000FDF752B940180020881A002010B50A4949
:10561000082204460FF078FA48B12378FF2B08D10E
:10562000607800F00F00831E5842584110BD0120E1
:10563000FCE70020FAE700BF707A010008B50449D2
:1056400010220FF061FAB0FA80F0400908BD00BFE7
:10565000A07A0100002103F0C3BA08B5FFF7B8F93A
:1056600028B190F8663013F0010F08BF002008BD84
:10567000044B18684369013301D00EF061BC8368A4
:105680005B68184730A7010038B505685DB195F82B
:1056900066301B0707D5FFF72BFB00242046FFF7DA
:1056A0008DFC044600B938BD23689D42F6D1FFF752
:1056B00061FCF3E72DE9F843089C074690469946BC
:1056C0000D46C1B191F8F9310A2B14D14B4600F1C6
:1056D000100257F8041B43F8041B9742F9D1B5F8A0
:1056E000FA311B01A9F81830002389F81A30012675
:1056F0003046BDE8F883ECB12046FEF758FF064679
:10570000C0B1B4F8643003F00703032B0DD10422B9
:1057100021462846FEF7B6FD41F2883304F1240203
:1057200044F6C8712046FFF753FF49462046FFF76D
:1057300065FADDE74A4629463846FEF769F9064626
:105740000028D5D1D5F82C3113F4805103D0404630
:10575000FFF780FFCCE714BB0DB1B5F9FA110222B7
:105760003846FFF7CDF904460028F0D035B1D5F81A
:10577000C0301BB102223946032098470125B8F1F9
:10578000000F07D041460320FDF708FC7621404674
:1057900003F026FA29462046FEF7D7FCA8E7B4F81E
:1057A000643003F00703012B02D1032384F8673030
:1057B0003546E4E743074CBFC0F300300120704793
:1057C00041F2020383430CBF012000207047000018
:1057D00038B5084CFFF7ACF8A16929B10D6820462F
:1057E000FDF79AF82946F8E7FFF79AF8BDE8384040
:1057F000FFF7A4B8881A002038B5044608B9FBF7AB
:1058000031FF01F0DBFF47F23053C4F8183104F1E7
:1058100030000025FEF71EFD154984F8275184F855
:105820002851204602F0B9FA1249204602F0B5FA92
:1058300020461149402201F077F9D4F82C01FFF7F6
:10584000B9FF88B14FF47A7128460AF007F804F1DD
:10585000E402034644F6C3712046FFF7B9FE204632
:10586000BDE8384001F0B1BF204601F0D7F8F6E7B7
:10587000607A0100507A0100707A010037B50D4658
:10588000044608B9FBF7EEFE01F098FF204804F14A
:10589000D401FDF741F8D4F82C01FFF78BFF40B39A
:1058A0001B4804F1E401FDF737F804F13201084622
:1058B0000191FFF7ABFE019910B1204602F0CCFB3D
:1058C00004F1420108460191FFF7A0FE019910B1D1
:1058D000204602F0C1FB20460E4902F05DFB204647
:1058E0000D4902F059FB204603B0BDE8304001F0FD
:1058F0006CBF074804F1C401FDF70EF8002DD4D0A9
:10590000FD2384F82631204601F088F8CDE700BF5A
:10591000881A0020507A0100607A010010B5044610
:1059200008B9FBF79FFE01F049FF4FF47A73C4F802
:10593000203194F8293143F0010384F829314FF4E0
:10594000E163A4F824314FF0FF33C4F8143100238D
:1059500084F82631D4F82C3143F002032046C4F8F1
:105960002C3101F0BDFC2046BDE8104001F02DBFF8
:105970002DE9F0470C468CB0054608461646994678
:1059800001F01CFFFEF7D4FF4CB3B4F9FA1128461E
:10599000FFF763FE0746002800F0D680B0F8648069
:1059A000C8F304182846FFF731FE00285FD1B8F18C
:1059B000000F5CD0204601F008FF404601F0F3FEE6
:1059C0000446FEF7BBFF204601F0F8FEFEF7B0FFED
:1059D00094BB002E4ED134466FF075073EE0214651
:1059E000D5E708F10401284607F063FD98F8353043
:1059F000984207D3BAF1000F1AD09AF835209A428C
:105A000038BFC2464046FFF7D9FA80460028E8D1A1
:105A1000BAF1000F3AD09AF834305A0736D5BAF8AE
:105A20003630DB0732D5DAF80030B3F86480B7E7F8
:105A3000C246E7E7B846B5E7B4F9FA112846FFF7DA
:105A40000CFE074600974B46324621462846FFF794
:105A500031FE002814BF00276FF07507FEF76EFFB8
:105A6000204601F0B2FE38460CB0BDE8F087002CAD
:105A7000E8D1AEE731460320FDF790FA76213046B3
:105A800003F0AEF86FF075070024E7E703AA31468C
:105A90002846FFF7EBFA071E2EDB07A8FFF7CEFD1F
:105AA00058B14FBB07AA05F1100C28686968134666
:105AB00003C3083565451A46F7D14CBBBDF92E0026
:105AC00001F071FE0446FEF739FF204601F076FE34
:105AD000FEF72EFF5CBB214607A8FFF7BEFD4B4635
:105AE00000903246214607A8FFF7E4FD00283FF466
:105AF00073AFFCB9FBF7B6FD3EB131460020FDF7B0
:105B00004DFA7221304603F06BF86FF07107A5E78C
:105B1000B4F9FA21BDF82E309A4208D0204601F09F
:105B200054FEB4F9FA21BDF82E309A42C6D1B4F928
:105B3000FA11D1E7D4F8C030002B8FD09DF82C207B
:105B400003A90220984789E72846FFF75FFD002850
:105B50007FF470AFBA46B84654E700002DE9F04F25
:105B60002DED028B8B4689B015461E46044608B9BA
:105B7000FBF778FD01F022FEFEF7DAFE2B78853B7D
:105B8000032B00F29680DFE813F004009E007502FC
:105B90005803D4F82C31980740F18B809BF80730DC
:105BA000FF2B40F086806B78002B40F08280072E20
:105BB0007FD9A6F1080905F10808C2464F460BF146
:105BC00008034FBB0BF108063046FFF737FD40B91D
:105BD000B9F1000F37D1B4F9FA113046FFF73DFDA6
:105BE0000746D4F82C3113F4805059D14FF4FA7190
:105BF00009F034FE44F6C67105462046FFF7F0FB77
:105C0000854256D8A7B32B4607F1440244F6C57126
:105C10003846FFF7DDFC4CE0BE424AD39AF801104B
:105C2000002946D09AF80020012A07D1184603918E
:105C30000293FFF703FDDDE90231D0BBA7EBC107FB
:105C40000AEBC10ABDE798F80030012B09D1D4F85E
:105C50002C31D90405D443462A4659462046FEF73E
:105C60002BFB98F80130A9EBC30908EBC308AFE799
:105C7000FFF7FEFCD4F81431B04A934203D940F642
:105C8000B732904203D9A0F6B830834201D205F66C
:105C9000B8352B4604F1C40244F6C6712046B8E775
:105CA00003F00603062B04D100223146204600F003
:105CB00068FEFEF743FE204609B0BDEC028BBDE84E
:105CC000F04F01F082BD0BF10803184608EE103AC0
:105CD000FFF79CFC0028ECD09BF80730FF2BE8D1A5
:105CE0006B78002BE5D10F2EE3D9D4F82C01C20438
:105CF00006D4EB885BBA9BB242F228329342D8D8E2
:105D0000A6F11003039305F11007039A3B464FF0E9
:105D10000008002A40F08C80B8F1000F00F09E804F
:105D20004046FDF7DDFF0028C3D0B8F8066076BA1C
:105D300042F21073B6B2002E08BF1E464EF6602324
:105D40005E438046B5F806A0B4F9FA111FFA8AF945
:105D500018EE100AB9F1000F00F08880FEF798FFE6
:105D600002900028A5D09AFA9AF94FF47A731FFA94
:105D700089F903FB09F902464B46043244F6CD711A
:105D8000FFF726FC4E4528BF4E462B790BB184F811
:105D9000F831AB689BB193FA83F9D4F8183199457F
:105DA0000DD02046664B04F1D40244F6CE71FFF7C5
:105DB0000FFCC4F8189104F13000FEF74BFAEB68C1
:105DC00013B11BBAC4F82031029BABB1D4F82C310B
:105DD000DB0411D594F8303013F0EF0F03D004F149
:105DE0003200FDF755FE94F8313013F0EF0F03D079
:105DF00004F14200FDF74CFE039B002B40D1029BB7
:105E0000002B3FF456AF04F1E4054E482946FCF759
:105E100083FDD4F82C31DF047FF54BAF204600F032
:105E200061FEB30803EB43032A4644F6C37135E72A
:105E30009642FFF43EAF597800293FF43AAF93F809
:105E400000C0BCF1230F04D1B8F1000F7FF431AFD3
:105E50009846A2EBC10203EBC1035AE7FFF7B0FC7F
:105E600000287FF426AF4FF0FF366BE7FEF778FF90
:105E70000290002889D0FFF707FCCDF8089084E74E
:105E80003B78052B20D00BD8012B16D0032B4BD001
:105E90007B78039AA2EBC302039207EBC307ABE73D
:105EA000182B1FD0222BF3D1424639462846FDF746
:105EB00065FF864228BF0646EAE73B462A46594622
:105EC0002046FEF7F9F9E3E77B78012BE0D12B7848
:105ED000862BDDD17B681BBAB3F5A06FD8D3A4F8AD
:105EE0002A31D5E7D7F804A007F1080948469AFAFD
:105EF0008AFAFFF78BFB0028CAD1B978BAF1000FF4
:105F000003D14846FEF7E4FBC2E7BAF1FF3F08BF02
:105F10004FF0000ACDF800A0B4F9FA3118EE102ABB
:105F20004846FEF75BFBB3E77B78042B0CD04FF0C1
:105F3000FF339E4228BF1E46AAE700BF47F4FFFF7B
:105F400000DD6D00881A00202B78862BEFD107F139
:105F5000100A5046FFF75AFB0028E8D17B68D7F8B3
:105F600008901BBA99FA89F94B45E0D3D4F82C0173
:105F7000FA78C00401D51106D9D4520606D5BA78EC
:105F800004935146204600F0CFFD049BFA7812F0AE
:105F9000C00F0AD1D4F82C010493FFF711FC00289C
:105FA000C5D0049BB8F1000FC1D0BA7804927868CC
:105FB000E0B9814613E099F8343058070FD599F8C5
:105FC0003530049A9A420AD1514609F1040007F08B
:105FD00070FA049B834202D84846FFF7BFF8484650
:105FE000FEF7ECFF81460028E5D1A0E7591C07D059
:105FF000BB4A93429ABF4FF47A7253436FF0010346
:10600000B9F1FF3F08D0B64A91459ABF4FF47A7272
:1060100002FB09F96FF00109CDF800905146049A8E
:10602000B4F9FA010593FFF77DF9824600283FF4A1
:106030007EAF059BB8F1000F05D0014640460493A2
:10604000FFF71AF9049B97F90320F978002ABEBFDD
:10605000BAF8362042F00102AAF836204A0642BFBA
:10606000BAF8362042F00202AAF836204B4528BF83
:106070004B465EE79BF80730FF2B7FF41AAE6B7838
:10608000002B7FF416AE172E7FF613AE2B7AFF2B64
:106090003FF40FAE0BF108073846FFF7CFFA40B1D7
:1060A00090490D220BF118000EF02EFD00287FF410
:1060B00000AE05F1080A5146204601F022FD031EFC
:1060C0000393FFF6F6ADA6F1180305F11808029345
:1060D00042469946B9F1000F0CD13846FFF7AEFAA7
:1060E000A0B1CDF800904B463A462146504600F00C
:1060F00001FFDEE54E45FFF4DCAD517800293FF4A9
:10610000D8ADA9EBC10902EBC102E3E7D4F82C2119
:10611000D60705D4B4F9FA1103223846FEF7F0FC8D
:106120004FF000094E460EE098F80020012A2BD0CF
:10613000212A08BFC14698F80120029BA3EBC203A5
:10614000029308EBC208029B002BEDD1B9F1000FBE
:1061500028D056B100964B462A4659462046FDF7B0
:10616000DDFE064600283FF4A4AD039B234493F8CC
:106170003030980659D5B4F9FA115046FFF76DFA48
:106180008046C8B9304646E0D4F82C01FFF718FB2A
:1061900030B943462A4659462046FEF78DF8CAE7ED
:1061A0004646C8E7002EE0D033462A4659462046E8
:1061B000FEF782F84E46D8E7D4F82C3113F0020FE0
:1061C0009BF818300CBF4025C025FF2B2AD194F82E
:1061D000549104F5A6714A4606A80EF0C7FCB9F121
:1061E000000F1BD03246494606A800F0D1FD00281A
:1061F000C8D0064629463246504600F04BFD0546BB
:106200000028BFD03A460021FDF7C6FB064600280D
:1062100040F088802846FFF71DFA4AE545F0200542
:106220003046E6E745F02005E4E79BF81830009695
:10623000A3F1FF014B424B4156E79BF80730FF2B80
:106240007FF437AD6B78002B7FF433AD172E7FF6DC
:1062500030AD2B7AFF2B3FF42CAD9BF81830FF2B81
:1062600003D12B795A063FF524ADA6F1180905F1A3
:10627000180843464F4637BBB4F9FA1105F1080038
:10628000FFF7EBF9064600283FF413ADB9F1000F14
:106290002AD167B92B795B0609D5B6F8643003F0CB
:1062A0000703022B03D031462046FEF7A7F8D4F8A7
:1062B0002C3113F001037FF4FCAC2A463146204612
:1062C000FEF7AEF8F5E4BE42FFF4F3AC5A78002ACC
:1062D0003FF4EFACA7EBC20703EBC203CBE700BF71
:1062E00037894100907A010098F80030022B08D0DD
:1062F000212B0ED098F80130A9EBC30908EBC30895
:10630000C4E743462A4631462046FEF789F801276E
:10631000F0E7CDE9008643462A4659462046FDF778
:106320002BFCE7E77368FF22DA7100231A4619464F
:10633000184602F0B3F8054600283FF423AF6B6817
:10634000B4F8FA215A804FF47A712E60002009F0D7
:1063500085FA08F13402034644F6C271284658E42F
:1063600037B50D46044601F029FA45B1204600F044
:10637000B9FB204603B0BDE8304001F026BA4FF427
:106380007A71284609F06AFAFD2284F82621D4F8A9
:106390002C21019022F00402C4F82C21204600F0A8
:1063A0003DFB019B04F1E40244F6C3712046FFF774
:1063B0000FF9DEE738B5044601F000FAD4F82C01F5
:1063C000FFF7F8F9B0B344F6C3712046FFF708F8B9
:1063D000D4F82C31DA0432D594F82731022B42F26A
:1063E00010750AD9033B4FF47A6202FA03F31D4495
:1063F0004EF660239D4228BF1D46A8421AD9114976
:10640000204600F007FE94F82731092B9CBF01338A
:1064100084F8273194F82731022B03D9D4F82C3192
:10642000DB0407D52B4604F1E40244F6C371204691
:10643000FFF7CEF82046BDE8384001F0C6B94FF46A
:106440007A65DAE7607A010073B50D460446FEF717
:106450006FFAA5F59F41403910290DD8DFE801F00A
:10646000090919270C2B2F1111420C464A94159833
:1064700033002046FEF76DF802B0BDE87040FEF72D
:106480005DBA2046FDF79CFFF6E72046FDF7E2FEE9
:10649000F2E74149234640F20222022000F0B8FE12
:1064A0000028E9D10921204602F09AFBE4E72046C2
:1064B000FFF780FFE0E7204600F093FADCE7204694
:1064C00000F0ACFAD8E7354804F12401FCF724FACF
:1064D00094F8343023F0100384F834302046FEF76B
:1064E00049FDC9E72046FEF7CDFAC5E72046FEF78D
:1064F00089FEC1E72368B3F86400C0F3041001F01B
:1065000052F905460028B7D0FFF7B2F806462846EC
:1065100001F054F9A36B9E4206D32046FEF71EFEFF
:10652000284601F052F9A7E7E36B9E42F8D3211DFC
:1065300005F13200019106F0BCFF94F83530019965
:1065400083429FBF95F8303023F01F0343F00803C8
:1065500085F8303005F1420006F0ABFF94F8353095
:1065600083429FBF95F8313023F01F0343F00803A7
:1065700085F83130A36B04F114029B1B44F6CC71F7
:106580002046FFF725F8CBE72046FFF77DF873E7B5
:106590002046FDF77DFA6FE70000FFFF881A002014
:1065A0002DE9F04387B00C4607461646002110221D
:1065B00002A8DDF838901D460EF0EEFB0CB9FBF793
:1065C00051F8802EB04628BF4FF080085FFA88F25D
:1065D000214602A806F08DFF2749102202A80EF0DE
:1065E00093FA002844D02549082220460EF08CFA60
:1065F00000283DD02378FF2B3AD0A94538D8FEF7A4
:1066000097F92B46CDF80090424621463846FEF7D2
:1066100089FE054630B9FEF791F96FF00B0007B01F
:10662000BDE8F08338B201F0BEF8044618B9FEF7B1
:1066300085F90020F3E701F0C1F8D4F82C31DA0431
:106640005EBFEB8E43F00103EB8694F82931DB0744
:1066500005D57F2E9EBFEB8E43F00203EB862046CE
:1066600001F0B3F8FEF76AF9204600F0D7F9E0E749
:106670006FF01500D3E700BFA07A0100707A010027
:10668000F8B5054617460E4609B9FAF7EBFFFEF7CF
:106690004FF900242046FEF791FC044610B323680E
:1066A000002BF2D094F83520BA42F3D12DB1B3F8D3
:1066B0006430C3F304139D42ECD1211D304606F033
:1066C000F8FEB842E6D328B201F06DF838B1D0F840
:1066D0002C315B0703D50549224600F00EFA20460F
:1066E000FEF73CFDBDE8F840FEF728B9507A0100FE
:1066F0002DE9F0410C6807460E461546FEF718F9DD
:106700002046FEF75BFC044600B3D4F80080B8F1E5
:10671000000FF5D094F834305B07F1D5F7B994F851
:1067200035302B741022002128460EF035FB94F8EA
:106730003520211D284606F0DCFEB8F86430C3F38E
:1067400004136B82A36B6B61E36BAB61FEF7F6F82E
:10675000201E346018BF0120BDE8F081B8F8643015
:10676000C3F304139F42CBD1D9E7000030B58FB0FB
:1067700005461022002168460EF00EFB1E4B1868DD
:106780004369013333D00DF0DBFB2A7C29460446F4
:10679000684606F0AEFE2822694604A806F0E0FE30
:1067A0002A7C014615480EF01BFC698A14480EF03D
:1067B00017FC69694A1C07D0091B4FF47A7311480A
:1067C000B1FBF3F10EF00CFCA9694B1C0AD0A142FD
:1067D00085BF4FF47A70091B0021B1FBF0F10A4824
:1067E0000EF0FEFB09480EF0ADFC0FB030BD836823
:1067F0005B689847C9E700BF30A701008A750100B0
:10680000A27501003476010045760100F979010096
:10681000044B18684369013301D00DF091BB8368C4
:106820005B68184730A7010073B504460E46FFF7B2
:10683000EFFF23680546B3F86400C0F3041000F0CE
:10684000B2FFA26B531C1EBF4FF47A73521BB2FBF4
:10685000F3F2E36B591C07D09D428FBF00235B1BF3
:106860004FF47A71B3FBF1F3E18E11F0010506D01C
:10687000D0F82C0110F4805F14BF00258025890713
:1068800048BF45F04005CDE9005694F83510201D6D
:1068900000F088FA02B070BD2DE9F341D0F82C4128
:1068A000B0F9FA6141F20203A3430D464CD109B994
:1068B000FAF7D8FE002427464FF0010805EBD7036E
:1068C00093F82920FB4303F0070308FA03F31A4265
:1068D00011D0F8B204F070F9034660B1428A417CED
:1068E000007C009405F07DFF044620B90025284671
:1068F00002B0BDE8F0810137102FDFD10027394603
:106900002846FEF7D5FC074680B96E69FFF780FF81
:106910004EF66021301AB0FBF1F1286923462A4671
:1069200089B202B0BDE8F04105F080BF3B68B3F822
:106930006430C3F304139E42E1D12146FFF774FF94
:1069400004460028DBD1D1E714F48054CED125468B
:1069500010E094F834305B070CD52368B3F864304A
:10696000C3F304139E4205D12946FFF75DFF054698
:106970000028BBD02046FEF721FB04460028E8D1C2
:10698000B5E7F7B51446D0F82C2141F20203934342
:1069900005460F4621D014BB2146FFF77DFF00902E
:1069A00023463A460021284600F082FB11E094B9C4
:1069B00031462846FFF770FF009023463A460021F3
:1069C000284600F075FB3046FEF794FC064600288A
:1069D000EDD103B0F0BD0020EEE70026F3E7002084
:1069E000DDE738B50546B0F86400C0F3041000F0E8
:1069F000DAFE044608B9FAF735FE00F0DFFED4F8F7
:106A00002C315B0704D50022291D2046FFF7B9FF72
:106A10002046BDE8384000F0D8BE0000F7B5044677
:106A200000F0CCFE0CB9FAF71DFED4F82C31DA04D4
:106A30004AD4284F284894F82661394608F00EFFBA
:106A400044F6C67105462046FEF7CAFCFC2E01D965
:106A5000B84203D8D4F82C315B0735D5FC2E94BF4F
:106A60000022012200212046FFF78BFFFFF7D0FE16
:106A700094F82631C4F81401022B1AD9FC2E1DD823
:106A8000164B1748B3F9006004F1C4010191FBF7FC
:106A900043FF0023C4E9313544F6C6730199104819
:106AA000A4F8CE30C4F8D040A4F8CC60FBF7FCFECC
:106AB0000AE0B5F57A5F28BF4FF47A550133DBB2AF
:106AC00084F82631002BDBD1204603B0BDE8F0402E
:106AD00000F07BBEC02709007005030040180020AD
